{
  "transactions": [
    {
      "hash": "0x84e714b5337643003aa72f9b81cb53d4ec4636dba6f7df1f80859e1c8fbb6d06",
      "transactionType": "CREATE",
      "contractName": "XUSD",
      "contractAddress": "0x3cbaff19de8d477b304c5722067931cc0fa767f0",
      "function": null,
      "arguments": [
        "0xfE5da1e77f2d5E3D72080B9c8BaD377E4f7B4045"
      ],
      "transaction": {
        "from": "0x12e048d4f26f54c0625ef34fabd365e4f925f2ff",
        "gas": "0xf35fe",
        "value": "0x0",
        "input": "0x60806040526969e10de76676d080000060075534801561001d575f80fd5b50604051610dc4380380610dc483398101604081905261003c91610122565b604080518082018252600a81526910dc9bdcdcd19a5554d160b21b60208083019190915282518084019093526004835263161554d160e21b9083015290826001600160a01b0381166100a757604051631e4fbdf760e01b81525f600482015260240160405180910390fd5b6100b0816100d3565b5060046100bd83826101e7565b5060056100ca82826101e7565b505050506102a1565b5f80546001600160a01b038381166001600160a01b0319831681178455604051919092169283917f8be0079c531659141344cd1fd0a4f28419497f9722a3daafe3b4186f6b6457e09190a35050565b5f60208284031215610132575f80fd5b81516001600160a01b0381168114610148575f80fd5b9392505050565b634e487b7160e01b5f52604160045260245ffd5b600181811c9082168061017757607f821691505b60208210810361019557634e487b7160e01b5f52602260045260245ffd5b50919050565b601f8211156101e257805f5260205f20601f840160051c810160208510156101c05750805b601f840160051c820191505b818110156101df575f81556001016101cc565b50505b505050565b81516001600160401b038111156102005761020061014f565b6102148161020e8454610163565b8461019b565b6020601f821160018114610246575f831561022f5750848201515b5f19600385901b1c1916600184901b1784556101df565b5f84815260208120601f198516915b828110156102755787850151825560209485019460019092019101610255565b508482101561029257868401515f19600387901b60f8161c191681555b50505050600190811b01905550565b610b16806102ae5f395ff3fe608060405234801561000f575f80fd5b50600436106100fb575f3560e01c8063715018a611610093578063a9059cbb11610063578063a9059cbb14610201578063dd62ed3e14610214578063f2fde38b1461024c578063f6b5305b1461025f575f80fd5b8063715018a6146101c45780638da5cb5b146101cc57806395d89b41146101e65780639dc29fac146101ee575f80fd5b8063313ce567116100ce578063313ce5671461016557806332445bea1461017457806340c10f191461018957806370a082311461019c575f80fd5b806306fdde03146100ff578063095ea7b31461011d57806318160ddd1461014057806323b872dd14610152575b5f80fd5b610107610267565b604051610114919061093e565b60405180910390f35b61013061012b3660046109a4565b6102f7565b6040519015158152602001610114565b6003545b604051908152602001610114565b6101306101603660046109cc565b610310565b60405160128152602001610114565b610187610182366004610a06565b610333565b005b6101876101973660046109a4565b610340565b6101446101aa366004610a1d565b6001600160a01b03165f9081526001602052604090205490565b61018761044f565b5f546040516001600160a01b039091168152602001610114565b610107610462565b6101876101fc3660046109a4565b610471565b61013061020f3660046109a4565b610487565b610144610222366004610a3d565b6001600160a01b039182165f90815260026020908152604080832093909416825291909152205490565b61018761025a366004610a1d565b610494565b600754610144565b60606004805461027690610a6e565b80601f01602080910402602001604051908101604052809291908181526020018280546102a290610a6e565b80156102ed5780601f106102c4576101008083540402835291602001916102ed565b820191905f5260205f20905b8154815290600101906020018083116102d057829003601f168201915b5050505050905090565b5f336103048185856104ea565b60019150505b92915050565b5f3361031d8582856104fc565b61032885858561058a565b506001949350505050565b61033b6105e7565b600755565b6103486105e7565b60065481904290620151809061035e9083610aba565b10156103cd576008546007546103749190610aba565b8211156103c85760405162461bcd60e51b815260206004820152601f60248201527f585553443a204d696e74696e67204c696d69742069732065786365656465640060448201526064015b60405180910390fd5b610428565b60068190555f6008556007548211156104285760405162461bcd60e51b815260206004820152601f60248201527f585553443a204d696e74696e67204c696d69742069732065786365656465640060448201526064016103bf565b8260085f8282546104399190610acd565b909155506104499050848461062c565b50505050565b6104576105e7565b6104605f610660565b565b60606005805461027690610a6e565b6104796105e7565b61048382826106c7565b5050565b5f3361030481858561058a565b61049c6105e7565b6001600160a01b0381166104de576040517f1e4fbdf70000000000000000000000000000000000000000000000000000000081525f60048201526024016103bf565b6104e781610660565b50565b6104f783838360016106fb565b505050565b6001600160a01b038381165f908152600260209081526040808320938616835292905220545f198114610449578181101561057c576040517ffb8f41b20000000000000000000000000000000000000000000000000000000081526001600160a01b038416600482015260248101829052604481018390526064016103bf565b61044984848484035f6106fb565b6001600160a01b0383166105b357604051634b637e8f60e11b81525f60048201526024016103bf565b6001600160a01b0382166105dc5760405163ec442f0560e01b81525f60048201526024016103bf565b6104f78383836107ff565b5f546001600160a01b03163314610460576040517f118cdaa70000000000000000000000000000000000000000000000000000000081523360048201526024016103bf565b6001600160a01b0382166106555760405163ec442f0560e01b81525f60048201526024016103bf565b6104835f83836107ff565b5f80546001600160a01b038381167fffffffffffffffffffffffff0000000000000000000000000000000000000000831681178455604051919092169283917f8be0079c531659141344cd1fd0a4f28419497f9722a3daafe3b4186f6b6457e09190a35050565b6001600160a01b0382166106f057604051634b637e8f60e11b81525f60048201526024016103bf565b610483825f836107ff565b6001600160a01b03841661073d576040517fe602df050000000000000000000000000000000000000000000000000000000081525f60048201526024016103bf565b6001600160a01b03831661077f576040517f94280d620000000000000000000000000000000000000000000000000000000081525f60048201526024016103bf565b6001600160a01b038085165f908152600260209081526040808320938716835292905220829055801561044957826001600160a01b0316846001600160a01b03167f8c5be1e5ebec7d5bd14f71427d1e84f3dd0314c0f7b2291e5b200ac8c7c3b925846040516107f191815260200190565b60405180910390a350505050565b6001600160a01b038316610829578060035f82825461081e9190610acd565b909155506108b29050565b6001600160a01b0383165f9081526001602052604090205481811015610894576040517fe450d38c0000000000000000000000000000000000000000000000000000000081526001600160a01b038516600482015260248101829052604481018390526064016103bf565b6001600160a01b0384165f9081526001602052604090209082900390555b6001600160a01b0382166108ce576003805482900390556108ec565b6001600160a01b0382165f9081526001602052604090208054820190555b816001600160a01b0316836001600160a01b03167fddf252ad1be2c89b69c2b068fc378daa952ba7f163c4a11628f55a4df523b3ef8360405161093191815260200190565b60405180910390a3505050565b602081525f82518060208401525f5b8181101561096a576020818601810151604086840101520161094d565b505f604082850101526040601f19601f83011684010191505092915050565b80356001600160a01b038116811461099f575f80fd5b919050565b5f80604083850312156109b5575f80fd5b6109be83610989565b946020939093013593505050565b5f805f606084860312156109de575f80fd5b6109e784610989565b92506109f560208501610989565b929592945050506040919091013590565b5f60208284031215610a16575f80fd5b5035919050565b5f60208284031215610a2d575f80fd5b610a3682610989565b9392505050565b5f8060408385031215610a4e575f80fd5b610a5783610989565b9150610a6560208401610989565b90509250929050565b600181811c90821680610a8257607f821691505b602082108103610aa057634e487b7160e01b5f52602260045260245ffd5b50919050565b634e487b7160e01b5f52601160045260245ffd5b8181038181111561030a5761030a610aa6565b8082018082111561030a5761030a610aa656fea2646970667358221220e4ae666ac71fc527100f3674b030f1dd27a96a5e445d7f07d2d748309f17400e64736f6c634300081a0033000000000000000000000000fe5da1e77f2d5e3d72080b9c8bad377e4f7b4045",
        "nonce": "0x2c",
        "chainId": "0x103d"
      },
      "additionalContracts": [],
      "isFixedGasLimit": false
    },
    {
      "hash": "0x3c688fbfbc56601930ef7b22c753f0714e790d52fb3d16806b804de547bf78cc",
      "transactionType": "CREATE",
      "contractName": "Credit",
      "contractAddress": "0xfe5da1e77f2d5e3d72080b9c8bad377e4f7b4045",
      "function": null,
      "arguments": [
        "0x3CBaFF19De8d477B304c5722067931cc0Fa767F0",
        "0x28cC5eDd54B1E4565317C3e0Cfab551926A4CD2a"
      ],
      "transaction": {
        "from": "0x12e048d4f26f54c0625ef34fabd365e4f925f2ff",
        "gas": "0x383303",
        "value": "0x0",
        "input": "0x60806040525f6005556b033b2e3c9fd0803ce8000000600755348015610023575f80fd5b506040516131fa3803806131fa8339810160408190526100429161019d565b338061006857604051631e4fbdf760e01b81525f60048201526024015b60405180910390fd5b61007181610133565b505f805460ff60a01b19169055600180556001600160a01b0382166100c25760405163eac0d38960e01b815260040161005f90602080825260049082015263161554d160e21b604082015260600190565b6001600160a01b0381166101025760405163eac0d38960e01b815260040161005f906020808252600490820152630ae8aa8960e31b604082015260600190565b600280546001600160a01b039384166001600160a01b031991821617909155600380549290931691161790556101ce565b5f80546001600160a01b038381166001600160a01b0319831681178455604051919092169283917f8be0079c531659141344cd1fd0a4f28419497f9722a3daafe3b4186f6b6457e09190a35050565b80516001600160a01b0381168114610198575f80fd5b919050565b5f80604083850312156101ae575f80fd5b6101b783610182565b91506101c560208401610182565b90509250929050565b61301f806101db5f395ff3fe6080604052600436106102c4575f3560e01c80636bf63df111610170578063ab7b1c89116100d1578063c21ad2a411610087578063f02bfb0511610062578063f02bfb05146107d3578063f2fde38b146107e6578063fe6bcd7c14610805575f80fd5b8063c21ad2a414610780578063cf90f0071461079f578063df5da6b9146107b4575f80fd5b8063b39f20d5116100b7578063b39f20d51461072e578063b4eae1cb1461074d578063c1f1066314610761575f80fd5b8063ab7b1c89146106f0578063ad5c46481461070f575f80fd5b80638522ee21116101265780639dcb511a1161010c5780639dcb511a14610686578063a60ada74146106ba578063a9f18915146106d1575f80fd5b80638522ee21146106375780638da5cb5b14610656575f80fd5b8063715018a611610156578063715018a6146105f05780637cc6ce52146106045780638456cb5914610623575f80fd5b80636bf63df1146105b25780636d75b9ee146105d1575f80fd5b80633f4ba83a11610225578063587f5ed7116101db57806363b1ba25116101b657806363b1ba251461053757806365f6b01714610574578063693ffd9914610593575f80fd5b8063587f5ed71461052257806359b710a9146105375780635c975abb1461054c575f80fd5b80634d44ac4f1161020b5780634d44ac4f1461044a5780634dc809ce1461046957806355f5751014610488575f80fd5b80633f4ba83a14610423578063448265a714610437575f80fd5b806318af5e491161027a5780632bdcc70b116102605780632bdcc70b146103c657806332445bea146103e5578063350c35e914610404575f80fd5b806318af5e491461036e57806326c01303146103a7575f80fd5b8063164cbf05116102aa578063164cbf051461030757806316c197391461031c5780631775765f14610348575f80fd5b80630d23cc79146102cf57806314ba22e5146102d9575f80fd5b366102cb57005b5f80fd5b6102d7610824565b005b3480156102e4575f80fd5b506102ed606481565b60405163ffffffff90911681526020015b60405180910390f35b348015610312575f80fd5b506102ed6103e881565b348015610327575f80fd5b5061033b610336366004612b1a565b6108a2565b6040516102fe9190612b33565b348015610353575f80fd5b5061035c600281565b60405160ff90911681526020016102fe565b348015610379575f80fd5b50610399610388366004612b1a565b60046020525f908152604090205481565b6040519081526020016102fe565b3480156103b2575f80fd5b506102d76103c1366004612bf4565b6109ef565b3480156103d1575f80fd5b506102d76103e0366004612c2e565b610a00565b3480156103f0575f80fd5b506102d76103ff366004612c5f565b610a72565b34801561040f575f80fd5b506102d761041e366004612c76565b610af0565b34801561042e575f80fd5b506102d7610b0a565b6102d7610445366004612c9e565b610b1a565b348015610455575f80fd5b50610399610464366004612b1a565b610b3a565b348015610474575f80fd5b506102d7610483366004612c2e565b610bce565b348015610493575f80fd5b506104e76104a2366004612b1a565b60096020525f908152604090208054600282015460039092015460ff82169261010090920463ffffffff16916001600160701b0380821692600160701b909204169085565b60408051951515865263ffffffff90941660208601526001600160701b0392831693850193909352166060830152608082015260a0016102fe565b34801561052d575f80fd5b5061039960055481565b348015610542575f80fd5b506102ed6101f481565b348015610557575f80fd5b505f54600160a01b900460ff1660405190151581526020016102fe565b34801561057f575f80fd5b506102d761058e366004612c5f565b610c03565b34801561059e575f80fd5b506102d76105ad366004612c2e565b610d7a565b3480156105bd575f80fd5b506102d76105cc366004612c5f565b610e2b565b3480156105dc575f80fd5b506102d76105eb366004612c76565b610e36565b3480156105fb575f80fd5b506102d7610e55565b34801561060f575f80fd5b5061039961061e366004612b1a565b610e66565b34801561062e575f80fd5b506102d7610f33565b348015610642575f80fd5b506102d7610651366004612cce565b610f43565b348015610661575f80fd5b505f546001600160a01b03165b6040516001600160a01b0390911681526020016102fe565b348015610691575f80fd5b5061066e6106a0366004612b1a565b60086020525f90815260409020546001600160a01b031681565b3480156106c5575f80fd5b506102ed6305f5e10081565b3480156106dc575f80fd5b506102d76106eb366004612c76565b610fc0565b3480156106fb575f80fd5b506102d761070a366004612c5f565b610fda565b34801561071a575f80fd5b5060035461066e906001600160a01b031681565b348015610739575f80fd5b506102d7610748366004612b1a565b610fe4565b348015610758575f80fd5b5061035c600381565b34801561076c575f80fd5b506102d761077b366004612b1a565b611037565b34801561078b575f80fd5b5060025461066e906001600160a01b031681565b3480156107aa575f80fd5b506102ed61271081565b3480156107bf575f80fd5b506102d76107ce366004612c5f565b6110cc565b6102d76107e1366004612c5f565b6110fb565b3480156107f1575f80fd5b506102d7610800366004612b1a565b611178565b348015610810575f80fd5b5061039961081f366004612b1a565b6111cb565b60035f9054906101000a90046001600160a01b03166001600160a01b031663d0e30db0346040518263ffffffff1660e01b81526004015f604051808303818588803b158015610871575f80fd5b505af1158015610883573d5f803e3d5ffd5b50506003546108a093506001600160a01b0316915034905061122c565b565b6040805160c0810182525f8082526020808301829052606083850181905283018290526080830182905260a083018290526001600160a01b0385168252600990529190912054829060ff1661090a57604051634a32858f60e01b815260040160405180910390fd5b6001600160a01b0383165f908152600960209081526040808320815160c081018352815460ff811615158252610100900463ffffffff1681850152600182018054845181870281018701865281815292969395948701949293919290919084015b828210156109b2575f848152602090819020604080518082019091526002850290910180546001600160a01b0316825260019081015482840152908352909201910161096b565b5050509082525060028201546001600160701b038082166020840152600160701b9091041660408201526003909101546060909101529392505050565b6109fb8383835f611450565b505050565b610a08611793565b6001600160a01b038281165f8181526008602090815260409182902080546001600160a01b031916948616948517905581519283528201929092527fbd442b44232a47eafd1a3cf0610e4479497753134df9b5d61d3e611102552390910160405180910390a15050565b610a7a611793565b6002546040517f32445bea000000000000000000000000000000000000000000000000000000008152600481018390526001600160a01b03909116906332445bea906024015b5f604051808303815f87803b158015610ad7575f80fd5b505af1158015610ae9573d5f803e3d5ffd5b5050505050565b610afa82826117d8565b610b068233835f611864565b5050565b610b12611793565b6108a0611918565b610b2f6001600160a01b03841633308561196c565b6109fb8383836119e8565b6001600160a01b0381165f90815260096020526040812054829060ff16610b7457604051634a32858f60e01b815260040160405180910390fd5b6001600160a01b0383165f908152600960205260409020610b9481611b4a565b600282015460038301546001600160701b0392831692610bbc92600160701b90041690612d03565b610bc69190612d03565b949350505050565b610bd6611793565b6001600160a01b039182165f90815260086020526040902080546001600160a01b03191691909216179055565b610c0b611b85565b610c13611bc8565b335f8181526009602052604090205460ff16610c4257604051634a32858f60e01b815260040160405180910390fd5b5f8211610c965760405162461bcd60e51b815260206004820181905260248201527f4372656469743a20696e636f727265637420616d6f756e7420746f206d696e7460448201526064015b60405180910390fd5b335f9081526009602052604081206003810154909190610cb7908590612d03565b90505f612710610cc8606487612d16565b610cd29190612d2d565b6002840154610cf19190600160701b90046001600160701b0316612d03565b6002546040516340c10f1960e01b8152336004820152602481018890529192506001600160a01b0316906340c10f19906044015f604051808303815f87803b158015610d3b575f80fd5b505af1158015610d4d573d5f803e3d5ffd5b50505050610d6a338460010184610d6387611b4a565b855f611c0b565b50505050610d7760018055565b50565b610d82611bc8565b610d8a611793565b6001600160a01b038281165f8181526004602081905260409182902054915163a9059cbb60e01b81529385169084015260248301529063a9059cbb906044016020604051808303815f875af1158015610de5573d5f803e3d5ffd5b505050506040513d601f19601f82011682018060405250810190610e099190612d4c565b506001600160a01b0382165f90815260046020526040812055610b0660018055565b610d77816001611d29565b610e4b6001600160a01b03831633308461196c565b610b06828261122c565b610e5d611793565b6108a05f611f67565b6001600160a01b038082165f908152600860205260408120549091839116610ea1576040516337d9566560e21b815260040160405180910390fd5b6001600160a01b038084165f908152600860209081526040918290205482517f50d25bcd000000000000000000000000000000000000000000000000000000008152925193169283926350d25bcd9260048083019391928290030181865afa158015610f0f573d5f803e3d5ffd5b505050506040513d601f19601f82011682018060405250810190610bc69190612d6b565b610f3b611793565b6108a0611fb6565b610f4b611793565b610f53611793565b610f5b611793565b6002546040516340c10f1960e01b81526001600160a01b03838116600483015260248201859052909116906340c10f19906044015f604051808303815f87803b158015610fa6575f80fd5b505af1158015610fb8573d5f803e3d5ffd5b505050505050565b600354610b069083906001600160a01b0316836001611450565b610d77815f611d29565b610fec611793565b6002546040517ff2fde38b0000000000000000000000000000000000000000000000000000000081526001600160a01b0383811660048301529091169063f2fde38b90602401610ac0565b61103f611bc8565b611047611793565b60025460055460405163a9059cbb60e01b81526001600160a01b038481166004830152602482019290925291169063a9059cbb906044016020604051808303815f875af115801561109a573d5f803e3d5ffd5b505050506040513d601f19601f820116820180604052508101906110be9190612d4c565b505f600555610d7760018055565b6003546110e2906001600160a01b0316826117d8565b600354610d77906001600160a01b031633836001611864565b60035f9054906101000a90046001600160a01b03166001600160a01b031663d0e30db0346040518263ffffffff1660e01b81526004015f604051808303818588803b158015611148575f80fd5b505af115801561115a573d5f803e3d5ffd5b5050600354610d7793506001600160a01b03169150349050836119e8565b611180611793565b6001600160a01b0381166111c2576040517f1e4fbdf70000000000000000000000000000000000000000000000000000000081525f6004820152602401610c8d565b610d7781611f67565b6001600160a01b0381165f90815260096020526040812054829060ff1661120557604051634a32858f60e01b815260040160405180910390fd5b6001600160a01b0383165f90815260096020526040902061122590611ff8565b9392505050565b611234611bc8565b335f8181526009602052604090205460ff1661126357604051634a32858f60e01b815260040160405180910390fd5b6001600160a01b038084165f9081526008602052604090205484911661129c576040516337d9566560e21b815260040160405180910390fd5b5f83116113115760405162461bcd60e51b815260206004820152602860248201527f4372656469743a2053656e7420696e636f727265637420636f6c6c617465726160448201527f6c20616d6f756e740000000000000000000000000000000000000000000000006064820152608401610c8d565b335f90815260096020526040812090805b60018301548110156113b557866001600160a01b031683600101828154811061134d5761134d612d82565b5f9182526020909120600290910201546001600160a01b0316036113ad578583600101828154811061138157611381612d82565b905f5260205f2090600202016001015f82825461139e9190612d03565b90915550600192506113b59050565b600101611322565b508061141257604080518082019091526001600160a01b03878116825260208083018881526001868101805480830182555f9182529390209451600290930290940180546001600160a01b03191692909316919091178255519101555b6114433383600101846003015461142886611b4a565b6002870154600160701b90046001600160701b03165f611c0b565b50505050610b0660018055565b611458611bc8565b6001600160a01b0384165f90815260096020526040902054849060ff1661149257604051634a32858f60e01b815260040160405180910390fd5b6001600160a01b038085165f908152600860205260409020548591166114cb576040516337d9566560e21b815260040160405180910390fd5b6001600160a01b0386165f908152600960205260408120906114ec82611ff8565b9050600754811061153f5760405162461bcd60e51b815260206004820152601b60248201527f4372656469743a20706f736974696f6e206973206865616c74687900000000006044820152606401610c8d565b61154888610b3a565b611553876002612d16565b11156115c75760405162461bcd60e51b815260206004820152602660248201527f4372656469743a204c69717569646174696f6e20616d6f756e7420697320746f60448201527f6f206869676800000000000000000000000000000000000000000000000000006064820152608401610c8d565b5f6115d188610e66565b90505f816115e36305f5e1008a612d16565b6115ed9190612d2d565b90505f6127106115ff6103e884612d16565b6116099190612d2d565b90505f6116168284612d03565b90505f6127106116286101f486612d16565b6116329190612d2d565b600254604051632770a7eb60e21b8152336004820152602481018e90529192506001600160a01b031690639dc29fac906044015f604051808303815f87803b15801561167c575f80fd5b505af115801561168e573d5f803e3d5ffd5b505050506001600160a01b038c165f90815260046020526040812080548392906116b9908490612d03565b909155506116d39050878d6116ce8486612d03565b6121de565b6116df8c33848d611864565b61171c8d886001018d8a600301546116f79190612d96565b6117008b611b4a565b60028c0154600160701b90046001600160701b03166001611c0b565b60408051338152602081018d905290810183905260608101829052608081018790526001600160a01b03808e1691908f16907f92ac1f3f48e8b4545dd88f35742d2f94783f5cc3a703faf7092fbbd4b2cf66a49060a00160405180910390a350505050505050505061178d60018055565b50505050565b5f546001600160a01b031633146108a0576040517f118cdaa7000000000000000000000000000000000000000000000000000000008152336004820152602401610c8d565b6117e0611bc8565b335f8181526009602052604090205460ff1661180f57604051634a32858f60e01b815260040160405180910390fd5b335f9081526009602052604090206118288185856121de565b6118593382600101836003015461183e85611b4a565b6002860154600160701b90046001600160701b03165f611c0b565b5050610b0660018055565b6003546001600160a01b03858116911614801561187e5750805b15611904576003546040517f2e1a7d4d000000000000000000000000000000000000000000000000000000008152600481018490526001600160a01b0390911690632e1a7d4d906024015f604051808303815f87803b1580156118df575f80fd5b505af11580156118f1573d5f803e3d5ffd5b505050506118ff83836122fe565b61178d565b61178d6001600160a01b0385168484612387565b6119206123b8565b5f805460ff60a01b191690557f5db9ee0a495bf2e6ff9c91a7834c1ba4fdd244a5e8aa4e537bd38aeae4b073aa335b6040516001600160a01b03909116815260200160405180910390a1565b6040516001600160a01b03848116602483015283811660448301526064820183905261178d9186918216906323b872dd906084015b604051602081830303815290604052915060e01b6020820180517bffffffffffffffffffffffffffffffffffffffffffffffffffffffff83818316178352505050506123fa565b6119f0611b85565b6119f8611bc8565b6001600160a01b038084165f90815260086020526040902054849116611a31576040516337d9566560e21b815260040160405180910390fd5b670de0b6b3a7640000821015611aaf5760405162461bcd60e51b815260206004820152603260248201527f4372656469743a20426f6479206f6620637265646974206d757374206265206760448201527f726561746572207468616e2031205855534400000000000000000000000000006064820152608401610c8d565b335f9081526009602052604090205460ff1615611b345760405162461bcd60e51b815260206004820152602860248201527f4372656469743a205573657220616c726561647920686173206372656469742060448201527f706f736974696f6e0000000000000000000000000000000000000000000000006064820152608401610c8d565b611b4033858585612474565b506109fb60018055565b600381015481545f91611b6791610100900463ffffffff1661263c565b6002830154611b7f91906001600160701b0316612d03565b92915050565b5f54600160a01b900460ff16156108a0576040517fd93c066500000000000000000000000000000000000000000000000000000000815260040160405180910390fd5b600260015403611c04576040517f3ee5aeb500000000000000000000000000000000000000000000000000000000815260040160405180910390fd5b6002600155565b6001600160a01b0386165f908152600960205260409020805463ffffffff42166101000264ffffffff0019909116178155600381018590556002810180546001600160701b03858116600160701b027fffffffff00000000000000000000000000000000000000000000000000000000909216908716171790558554611c979060018301908890612a4c565b508115611ca45750610fb8565b5f611cae82611ff8565b9050600754811015611cd65760405163b8dfb2c160e01b815260048101829052602401610c8d565b876001600160a01b03167f8abfda6febd1fd3da980c39c1cfb153a69055ab3e45105f2931e22ca2bcfc9a98888888886604051611d17959493929190612dfa565b60405180910390a25050505050505050565b611d31611bc8565b335f8181526009602052604090205460ff16611d6057604051634a32858f60e01b815260040160405180910390fd5b335f90815260096020526040812060038101549091611d7e83611b4a565b60028401549091506001600160701b03600160701b9091048116905f908290611da990851686612d03565b611db39190612d03565b9050808810611ed2576002546040516323b872dd60e01b8152336004820152306024820152604481018390526001600160a01b03909116906323b872dd906064016020604051808303815f875af1158015611e10573d5f803e3d5ffd5b505050506040513d601f19601f82011682018060405250810190611e349190612d4c565b50600254604051632770a7eb60e21b8152306004820152602481018690526001600160a01b0390911690639dc29fac906044015f604051808303815f87803b158015611e7e575f80fd5b505af1158015611e90573d5f803e3d5ffd5b505050508183611ea09190612e37565b6001600160701b031660055f828254611eb99190612d03565b90915550611ecd9050336001870189612670565b611f58565b6002546040516323b872dd60e01b8152336004820152306024820152604481018a90526001600160a01b03909116906323b872dd906064016020604051808303815f875af1158015611f26573d5f803e3d5ffd5b505050506040513d601f19601f82011682018060405250810190611f4a9190612d4c565b50611f58338986868661277e565b505050505050610b0660018055565b5f80546001600160a01b038381166001600160a01b0319831681178455604051919092169283917f8be0079c531659141344cd1fd0a4f28419497f9722a3daafe3b4186f6b6457e09190a35050565b611fbe611b85565b5f805460ff60a01b1916600160a01b1790557f62e78cea01bee320cd4e420270b5ea74000d11b0c9f74754ebdbfc544b05a25861194f3390565b5f80805b600184015481101561215c575f84600101828154811061201e5761201e612d82565b5f91825260209182902060029091020154604080517f313ce56700000000000000000000000000000000000000000000000000000000815290516001600160a01b039092169263313ce567926004808401938290030181865afa158015612087573d5f803e3d5ffd5b505050506040513d601f19601f820116820180604052508101906120ab9190612e56565b6120b690600a612f59565b6007548660010184815481106120ce576120ce612d82565b905f5260205f209060020201600101546120e89190612d16565b6120f29190612d2d565b90505f61212b86600101848154811061210d5761210d612d82565b5f9182526020909120600290910201546001600160a01b0316610e66565b90506305f5e10061213c8284612d16565b6121469190612d2d565b6121509085612d03565b93505050600101611ffc565b505f670de0b6b3a764000060075461217386611b4a565b600287015460038801546001600160701b039283169261219b92600160701b90041690612d03565b6121a59190612d03565b6121af9190612d16565b6121b99190612d2d565b90506121c6600282612d16565b826007546121d49190612d16565b610bc69190612d2d565b5f5b600184015481101561178d57826001600160a01b031684600101828154811061220b5761220b612d82565b5f9182526020909120600290910201546001600160a01b0316036122f6578184600101828154811061223f5761223f612d82565b905f5260205f2090600202016001015410156122b8578184600101828154811061226b5761226b612d82565b905f5260205f209060020201600101546040517f768063db000000000000000000000000000000000000000000000000000000008152600401610c8d929190918252602082015260400190565b818460010182815481106122ce576122ce612d82565b905f5260205f2090600202016001015f8282546122eb9190612d96565b9091555061178d9050565b6001016121e0565b5f826001600160a01b0316826040515f6040518083038185875af1925050503d805f8114612347576040519150601f19603f3d011682016040523d82523d5f602084013e61234c565b606091505b50509050806109fb576040517f2370f30b00000000000000000000000000000000000000000000000000000000815260040160405180910390fd5b6040516001600160a01b038381166024830152604482018390526109fb91859182169063a9059cbb906064016119a1565b5f54600160a01b900460ff166108a0576040517f8dfc202b00000000000000000000000000000000000000000000000000000000815260040160405180910390fd5b5f61240e6001600160a01b03841683612918565b905080515f141580156124325750808060200190518101906124309190612d4c565b155b156109fb576040517f5274afe70000000000000000000000000000000000000000000000000000000081526001600160a01b0384166004820152602401610c8d565b5f612710612483606484612d16565b61248d9190612d2d565b6001600160a01b038681165f9081526009602090815260408083208054600164ffffffffff199091166101004263ffffffff1602178117825582518084019093528a861683528284018a8152818301805480840182559087529486209351600295860290940180546001600160a01b0319169490971693909317865591519490910193909355820180547fffffffff0000000000000000000000000000000000000000000000000000000016600160701b6001600160701b03861602179055600382018590559192509061256082611ff8565b90506007548110156125885760405163b8dfb2c160e01b815260048101829052602401610c8d565b6002546040516340c10f1960e01b81526001600160a01b03898116600483015260248201879052909116906340c10f19906044015f604051808303815f87803b1580156125d3575f80fd5b505af11580156125e5573d5f803e3d5ffd5b50505050866001600160a01b03167f1e78f88f9520423133e53c373932263d021c680599768934a55bf3692ac59fb88360010186868560405161262b9493929190612f67565b60405180910390a250505050505050565b5f8061264e6127106301e13380612d16565b6101f48561265c8642612d96565b6126669190612d16565b6121d49190612d16565b5f5b82548110156126e2576126da83828154811061269057612690612d82565b905f5260205f2090600202015f015f9054906101000a90046001600160a01b0316858584815481106126c4576126c4612d82565b905f5260205f2090600202016001015485611864565b600101612672565b506001600160a01b0383165f908152600960205260408120805464ffffffffff19168155906127146001830182612ac0565b506002810180547fffffffff000000000000000000000000000000000000000000000000000000001690555f60039091018190556040516001600160a01b038516917fbe08976f34b1e00a9fdef44b980cf43f1508a06336901b87093351d21722c3d891a2505050565b5f6127898284612e37565b9050806001600160701b031685111561284e575f6127b06001600160701b03831687612d96565b9050816001600160701b031660055f8282546127cc9190612d03565b909155505f9450849350508015612848576127e78186612d96565b600254604051632770a7eb60e21b8152306004820152602481018490529196506001600160a01b031690639dc29fac906044015f604051808303815f87803b158015612831575f80fd5b505af1158015612843573d5f803e3d5ffd5b505050505b506128e5565b816001600160701b03168511156128c2575f6128736001600160701b03841687612d96565b9050826001600160701b031660055f82825461288f9190612d03565b925050819055508060055f8282546128a79190612d03565b909155505f93506128ba90508185612f9e565b9350506128e5565b6128cc8583612f9e565b91508460055f8282546128df9190612d03565b90915550505b610fb88660095f896001600160a01b03166001600160a01b031681526020019081526020015f206001018686865f611c0b565b606061122583835f845f80856001600160a01b0316848660405161293c9190612fbd565b5f6040518083038185875af1925050503d805f8114612976576040519150601f19603f3d011682016040523d82523d5f602084013e61297b565b606091505b509150915061298b868383612995565b9695505050505050565b6060826129aa576129a582612a0a565b611225565b81511580156129c157506001600160a01b0384163b155b15612a03576040517f9996b3150000000000000000000000000000000000000000000000000000000081526001600160a01b0385166004820152602401610c8d565b5080611225565b805115612a1a5780518082602001fd5b6040517f1425ea4200000000000000000000000000000000000000000000000000000000815260040160405180910390fd5b828054828255905f5260205f20906002028101928215612ab0575f5260205f209160020282015b82811115612ab057825482546001600160a01b0319166001600160a01b039091161782556001808401549083015560029283019290910190612a73565b50612abc929150612ada565b5090565b5080545f8255600202905f5260205f2090810190610d7791905b5b80821115612abc5780546001600160a01b03191681555f6001820155600201612adb565b80356001600160a01b0381168114612b15575f80fd5b919050565b5f60208284031215612b2a575f80fd5b61122582612aff565b602081525f60e0820183511515602084015263ffffffff6020850151166040840152604084015160c06060850152818151808452610100860191506020830193505f92505b80831015612bb15783516001600160a01b0381511683526020810151602084015250604082019150602084019350600183019250612b78565b5060608601516001600160701b0381166080870152925060808601516001600160701b03811660a0870152925060a086015160c086015280935050505092915050565b5f805f60608486031215612c06575f80fd5b612c0f84612aff565b9250612c1d60208501612aff565b929592945050506040919091013590565b5f8060408385031215612c3f575f80fd5b612c4883612aff565b9150612c5660208401612aff565b90509250929050565b5f60208284031215612c6f575f80fd5b5035919050565b5f8060408385031215612c87575f80fd5b612c9083612aff565b946020939093013593505050565b5f805f60608486031215612cb0575f80fd5b612cb984612aff565b95602085013595506040909401359392505050565b5f8060408385031215612cdf575f80fd5b82359150612c5660208401612aff565b634e487b7160e01b5f52601160045260245ffd5b80820180821115611b7f57611b7f612cef565b8082028115828204841417611b7f57611b7f612cef565b5f82612d4757634e487b7160e01b5f52601260045260245ffd5b500490565b5f60208284031215612d5c575f80fd5b81518015158114611225575f80fd5b5f60208284031215612d7b575f80fd5b5051919050565b634e487b7160e01b5f52603260045260245ffd5b81810381811115611b7f57611b7f612cef565b5f8154808452602084019350825f5260205f205f5b82811015612df05781546001600160a01b03168652600180830154602088015260409096019560029092019101612dbe565b5093949350505050565b60a081525f612e0c60a0830188612da9565b6020830196909652506001600160701b03938416604082015291909216606082015260800152919050565b6001600160701b038181168382160190811115611b7f57611b7f612cef565b5f60208284031215612e66575f80fd5b815160ff81168114611225575f80fd5b6001815b6001841115612eb157808504811115612e9557612e95612cef565b6001841615612ea357908102905b60019390931c928002612e7a565b935093915050565b5f82612ec757506001611b7f565b81612ed357505f611b7f565b8160018114612ee95760028114612ef357612f0f565b6001915050611b7f565b60ff841115612f0457612f04612cef565b50506001821b611b7f565b5060208310610133831016604e8410600b8410161715612f32575081810a611b7f565b612f3e5f198484612e76565b805f1904821115612f5157612f51612cef565b029392505050565b5f61122560ff841683612eb9565b608081525f612f796080830187612da9565b6020830195909552506001600160701b03929092166040830152606090910152919050565b6001600160701b038281168282160390811115611b7f57611b7f612cef565b5f82515f5b81811015612fdc5760208186018101518583015201612fc2565b505f92019182525091905056fea2646970667358221220d82c7bd99e6ef8ca78c8ff827b8cbb94ea68cebb7dde19991303733955a0ae9964736f6c634300081a00330000000000000000000000003cbaff19de8d477b304c5722067931cc0fa767f000000000000000000000000028cc5edd54b1e4565317c3e0cfab551926a4cd2a",
        "nonce": "0x2d",
        "chainId": "0x103d"
      },
      "additionalContracts": [],
      "isFixedGasLimit": false
    },
    {
      "hash": "0x6bc1590cc2612fca4556c653fbf9b9f5ab246fd479ed19b253d9a12cfb46f215",
      "transactionType": "CREATE",
      "contractName": "Oracle",
      "contractAddress": "0x72ebcc23850acadf271d28f8fb5e98d02d4254a0",
      "function": null,
      "arguments": null,
      "transaction": {
        "from": "0x12e048d4f26f54c0625ef34fabd365e4f925f2ff",
        "gas": "0x1d84d",
        "value": "0x0",
        "input": "0x6080604052348015600e575f80fd5b5060b780601a5f395ff3fe6080604052348015600e575f80fd5b5060043610603a575f3560e01c806350d25bcd14603e57806385bb7d6914605357806399213cd814605a575b5f80fd5b5f545b60405190815260200160405180910390f35b60415f5481565b60696065366004606b565b5f55565b005b5f60208284031215607a575f80fd5b503591905056fea264697066735822122072ca29d23fa22b8e33a4d46c96de556d4239ccffd4385ba3aeb24f1e4f2fc94b64736f6c634300081a0033",
        "nonce": "0x2e",
        "chainId": "0x103d"
      },
      "additionalContracts": [],
      "isFixedGasLimit": false
    },
    {
      "hash": "0x867599ce763e204b96bd07225874f023bfb4faaae18669a90cd1105ea3c0c861",
      "transactionType": "CREATE",
      "contractName": "Oracle",
      "contractAddress": "0xfe5ef602444a765c61266f130e0b88af5cd74fe3",
      "function": null,
      "arguments": null,
      "transaction": {
        "from": "0x12e048d4f26f54c0625ef34fabd365e4f925f2ff",
        "gas": "0x1d84d",
        "value": "0x0",
        "input": "0x6080604052348015600e575f80fd5b5060b780601a5f395ff3fe6080604052348015600e575f80fd5b5060043610603a575f3560e01c806350d25bcd14603e57806385bb7d6914605357806399213cd814605a575b5f80fd5b5f545b60405190815260200160405180910390f35b60415f5481565b60696065366004606b565b5f55565b005b5f60208284031215607a575f80fd5b503591905056fea264697066735822122072ca29d23fa22b8e33a4d46c96de556d4239ccffd4385ba3aeb24f1e4f2fc94b64736f6c634300081a0033",
        "nonce": "0x2f",
        "chainId": "0x103d"
      },
      "additionalContracts": [],
      "isFixedGasLimit": false
    },
    {
      "hash": "0xa5b8dbbb9e7b5587bb46f8407b08a763247d6d3b36a23b4b2ea6a71e3ac6a71e",
      "transactionType": "CREATE",
      "contractName": "Oracle",
      "contractAddress": "0x9ae206f0aa765407cea052607b5da975232d8cad",
      "function": null,
      "arguments": null,
      "transaction": {
        "from": "0x12e048d4f26f54c0625ef34fabd365e4f925f2ff",
        "gas": "0x1d84d",
        "value": "0x0",
        "input": "0x6080604052348015600e575f80fd5b5060b780601a5f395ff3fe6080604052348015600e575f80fd5b5060043610603a575f3560e01c806350d25bcd14603e57806385bb7d6914605357806399213cd814605a575b5f80fd5b5f545b60405190815260200160405180910390f35b60415f5481565b60696065366004606b565b5f55565b005b5f60208284031215607a575f80fd5b503591905056fea264697066735822122072ca29d23fa22b8e33a4d46c96de556d4239ccffd4385ba3aeb24f1e4f2fc94b64736f6c634300081a0033",
        "nonce": "0x30",
        "chainId": "0x103d"
      },
      "additionalContracts": [],
      "isFixedGasLimit": false
    },
    {
      "hash": "0xc929619cdd94823bab1850210f23f3c5f8716277a0a16cbd0e70615f1896b389",
      "transactionType": "CREATE",
      "contractName": "Oracle",
      "contractAddress": "0x9a6f9c5008016b3e41e3d3a103b65a8f45b50b09",
      "function": null,
      "arguments": null,
      "transaction": {
        "from": "0x12e048d4f26f54c0625ef34fabd365e4f925f2ff",
        "gas": "0x1d84d",
        "value": "0x0",
        "input": "0x6080604052348015600e575f80fd5b5060b780601a5f395ff3fe6080604052348015600e575f80fd5b5060043610603a575f3560e01c806350d25bcd14603e57806385bb7d6914605357806399213cd814605a575b5f80fd5b5f545b60405190815260200160405180910390f35b60415f5481565b60696065366004606b565b5f55565b005b5f60208284031215607a575f80fd5b503591905056fea264697066735822122072ca29d23fa22b8e33a4d46c96de556d4239ccffd4385ba3aeb24f1e4f2fc94b64736f6c634300081a0033",
        "nonce": "0x31",
        "chainId": "0x103d"
      },
      "additionalContracts": [],
      "isFixedGasLimit": false
    },
    {
      "hash": "0x80d876850f6f4af9424b3220118f762284e5148e1cbd73d5db453d967342914c",
      "transactionType": "CALL",
      "contractName": "Oracle",
      "contractAddress": "0x72ebcc23850acadf271d28f8fb5e98d02d4254a0",
      "function": "setAnswer(int256)",
      "arguments": [
        "75000000"
      ],
      "transaction": {
        "from": "0x12e048d4f26f54c0625ef34fabd365e4f925f2ff",
        "to": "0x72ebcc23850acadf271d28f8fb5e98d02d4254a0",
        "gas": "0xf8ea",
        "value": "0x0",
        "input": "0x99213cd800000000000000000000000000000000000000000000000000000000047868c0",
        "nonce": "0x32",
        "chainId": "0x103d"
      },
      "additionalContracts": [],
      "isFixedGasLimit": false
    },
    {
      "hash": "0x3df3bc9031ce19ceae19c5ab1fa620e4a145afce38bc3b451c8a42fe31f58e53",
      "transactionType": "CALL",
      "contractName": "Oracle",
      "contractAddress": "0xfe5ef602444a765c61266f130e0b88af5cd74fe3",
      "function": "setAnswer(int256)",
      "arguments": [
        "6361200000000"
      ],
      "transaction": {
        "from": "0x12e048d4f26f54c0625ef34fabd365e4f925f2ff",
        "to": "0xfe5ef602444a765c61266f130e0b88af5cd74fe3",
        "gas": "0xeb25",
        "value": "0x0",
        "input": "0x99213cd8000000000000000000000000000000000000000000000000000005c91510fc00",
        "nonce": "0x33",
        "chainId": "0x103d"
      },
      "additionalContracts": [],
      "isFixedGasLimit": false
    },
    {
      "hash": "0x920ae22bf8bd5cd41bf64394fc03461d8844eb5c348aeed803fb6a2856c8d449",
      "transactionType": "CALL",
      "contractName": "Oracle",
      "contractAddress": "0x9ae206f0aa765407cea052607b5da975232d8cad",
      "function": "setAnswer(int256)",
      "arguments": [
        "263900000000"
      ],
      "transaction": {
        "from": "0x12e048d4f26f54c0625ef34fabd365e4f925f2ff",
        "to": "0x9ae206f0aa765407cea052607b5da975232d8cad",
        "gas": "0xf8ea",
        "value": "0x0",
        "input": "0x99213cd80000000000000000000000000000000000000000000000000000003d71aa6f00",
        "nonce": "0x34",
        "chainId": "0x103d"
      },
      "additionalContracts": [],
      "isFixedGasLimit": false
    },
    {
      "hash": "0x95609df830f850112818c45311a48ed650de43df8d409eeafc9110a0b929fb88",
      "transactionType": "CALL",
      "contractName": "Oracle",
      "contractAddress": "0x9a6f9c5008016b3e41e3d3a103b65a8f45b50b09",
      "function": "setAnswer(int256)",
      "arguments": [
        "100000000"
      ],
      "transaction": {
        "from": "0x12e048d4f26f54c0625ef34fabd365e4f925f2ff",
        "to": "0x9a6f9c5008016b3e41e3d3a103b65a8f45b50b09",
        "gas": "0xeb05",
        "value": "0x0",
        "input": "0x99213cd80000000000000000000000000000000000000000000000000000000005f5e100",
        "nonce": "0x35",
        "chainId": "0x103d"
      },
      "additionalContracts": [],
      "isFixedGasLimit": false
    },
    {
      "hash": "0x37aaa4d00fc1bcf116e1f5170a44a674c84988030a09237ee01d84076041d93c",
      "transactionType": "CALL",
      "contractName": "Credit",
      "contractAddress": "0xfe5da1e77f2d5e3d72080b9c8bad377e4f7b4045",
      "function": "addNewAllowedCollateral(address,address)",
      "arguments": [
        "0x28cC5eDd54B1E4565317C3e0Cfab551926A4CD2a",
        "0x72EbCc23850Acadf271d28F8fB5E98D02d4254a0"
      ],
      "transaction": {
        "from": "0x12e048d4f26f54c0625ef34fabd365e4f925f2ff",
        "to": "0xfe5da1e77f2d5e3d72080b9c8bad377e4f7b4045",
        "gas": "0x11250",
        "value": "0x0",
        "input": "0x2bdcc70b00000000000000000000000028cc5edd54b1e4565317c3e0cfab551926a4cd2a00000000000000000000000072ebcc23850acadf271d28f8fb5e98d02d4254a0",
        "nonce": "0x36",
        "chainId": "0x103d"
      },
      "additionalContracts": [],
      "isFixedGasLimit": false
    },
    {
      "hash": "0x47dfbe0dfbcb2bfa4cd34e83d0233326a4fa757b46c79e84d488d29d9da94999",
      "transactionType": "CALL",
      "contractName": "Credit",
      "contractAddress": "0xfe5da1e77f2d5e3d72080b9c8bad377e4f7b4045",
      "function": "addNewAllowedCollateral(address,address)",
      "arguments": [
        "0x914938e817bd0b5f7984007dA6D27ca2EfB9f8f4",
        "0xFe5ef602444a765c61266F130e0B88AF5cd74fE3"
      ],
      "transaction": {
        "from": "0x12e048d4f26f54c0625ef34fabd365e4f925f2ff",
        "to": "0xfe5da1e77f2d5e3d72080b9c8bad377e4f7b4045",
        "gas": "0x10302",
        "value": "0x0",
        "input": "0x2bdcc70b000000000000000000000000914938e817bd0b5f7984007da6d27ca2efb9f8f4000000000000000000000000fe5ef602444a765c61266f130e0b88af5cd74fe3",
        "nonce": "0x37",
        "chainId": "0x103d"
      },
      "additionalContracts": [],
      "isFixedGasLimit": false
    },
    {
      "hash": "0xb166e6472877788b9c9bf7fbd3b582ee0da7ed352cdaa502c1f684a8d5db6cce",
      "transactionType": "CALL",
      "contractName": "Credit",
      "contractAddress": "0xfe5da1e77f2d5e3d72080b9c8bad377e4f7b4045",
      "function": "addNewAllowedCollateral(address,address)",
      "arguments": [
        "0x74f4B6c7F7F518202231b58CE6e8736DF6B50A81",
        "0x9Ae206f0aA765407cEa052607B5DA975232D8CAD"
      ],
      "transaction": {
        "from": "0x12e048d4f26f54c0625ef34fabd365e4f925f2ff",
        "to": "0xfe5da1e77f2d5e3d72080b9c8bad377e4f7b4045",
        "gas": "0x11250",
        "value": "0x0",
        "input": "0x2bdcc70b00000000000000000000000074f4b6c7f7f518202231b58ce6e8736df6b50a810000000000000000000000009ae206f0aa765407cea052607b5da975232d8cad",
        "nonce": "0x38",
        "chainId": "0x103d"
      },
      "additionalContracts": [],
      "isFixedGasLimit": false
    },
    {
      "hash": "0x8d8d73957669746a7fe9a3abb2678055580fd85973d2637f378f8b39327ae855",
      "transactionType": "CALL",
      "contractName": "Credit",
      "contractAddress": "0xfe5da1e77f2d5e3d72080b9c8bad377e4f7b4045",
      "function": "addNewAllowedCollateral(address,address)",
      "arguments": [
        "0x83E9A41c38D71f7a06632dE275877FcA48827870",
        "0x9A6F9c5008016B3E41E3D3a103B65a8F45b50B09"
      ],
      "transaction": {
        "from": "0x12e048d4f26f54c0625ef34fabd365e4f925f2ff",
        "to": "0xfe5da1e77f2d5e3d72080b9c8bad377e4f7b4045",
        "gas": "0x11250",
        "value": "0x0",
        "input": "0x2bdcc70b00000000000000000000000083e9a41c38d71f7a06632de275877fca488278700000000000000000000000009a6f9c5008016b3e41e3d3a103b65a8f45b50b09",
        "nonce": "0x39",
        "chainId": "0x103d"
      },
      "additionalContracts": [],
      "isFixedGasLimit": false
    }
  ],
  "receipts": [
    {
      "status": "0x1",
      "cumulativeGasUsed": "0x24f383",
      "logs": [
        {
          "address": "0x3cbaff19de8d477b304c5722067931cc0fa767f0",
          "topics": [
            "0x8be0079c531659141344cd1fd0a4f28419497f9722a3daafe3b4186f6b6457e0",
            "0x0000000000000000000000000000000000000000000000000000000000000000",
            "0x000000000000000000000000fe5da1e77f2d5e3d72080b9c8bad377e4f7b4045"
          ],
          "data": "0x",
          "blockHash": "0x74c76e761ef9d0fbe69ad7ca07c81598bda9d64177ed1f662572992be7c4ce13",
          "blockNumber": "0x501edc",
          "transactionHash": "0x84e714b5337643003aa72f9b81cb53d4ec4636dba6f7df1f80859e1c8fbb6d06",
          "transactionIndex": "0x0",
          "logIndex": "0x0",
          "removed": false
        }
      ],
      "logsBloom": "0x00000000000000000000000000000000000000000000000000800000000000000000000000000000000000000000000000000000000000000000000000000000000000000000000000000000000000000001000000000000000000000000000000000000020000000000000000000800000000000000000000008000000000400000000000000000000000000000000000000000000000000000000000200000000001000000000020000000000000000000000000000000000000000000000000000000080000000000000000000000000002000000000000000000000020000000000000000000000000000000000000000000000000000000000000000000",
      "type": "0x2",
      "transactionHash": "0x84e714b5337643003aa72f9b81cb53d4ec4636dba6f7df1f80859e1c8fbb6d06",
      "transactionIndex": "0x0",
      "blockHash": "0x74c76e761ef9d0fbe69ad7ca07c81598bda9d64177ed1f662572992be7c4ce13",
      "blockNumber": "0x501edc",
      "gasUsed": "0xbb281",
      "effectiveGasPrice": "0xa3c0c9bd0f",
      "from": "0x12e048d4f26f54c0625ef34fabd365e4f925f2ff",
      "to": null,
      "contractAddress": "0x3cbaff19de8d477b304c5722067931cc0fa767f0"
    },
    {
      "status": "0x1",
      "cumulativeGasUsed": "0x55c2f8",
      "logs": [
        {
          "address": "0xfe5da1e77f2d5e3d72080b9c8bad377e4f7b4045",
          "topics": [
            "0x8be0079c531659141344cd1fd0a4f28419497f9722a3daafe3b4186f6b6457e0",
            "0x0000000000000000000000000000000000000000000000000000000000000000",
            "0x00000000000000000000000012e048d4f26f54c0625ef34fabd365e4f925f2ff"
          ],
          "data": "0x",
          "blockHash": "0x8a2ed0cda136a4ef5e95c41b3d1bcbfc1758654c06f2f208c42ebcc2d04eff95",
          "blockNumber": "0x501edd",
          "transactionHash": "0x3c688fbfbc56601930ef7b22c753f0714e790d52fb3d16806b804de547bf78cc",
          "transactionIndex": "0x2",
          "logIndex": "0x7",
          "removed": false
        }
      ],
      "logsBloom": "0x00000000000000000000000000000000000000000000000000800000000000000800000000000000000000000000000000000000000000000104000000000000000000000000000000000000000000000001000000000000000000000000000000000000020000000000000000000800000004000000000000000800000000400000000000000000000000000000000000000000000000000000000000000000000000000000000000000000000000000000000000000000000000002000000000000000000000000000000000000000000000000000000000000000000020000000000000000000000000000000000000000000000000000000000000000000",
      "type": "0x2",
      "transactionHash": "0x3c688fbfbc56601930ef7b22c753f0714e790d52fb3d16806b804de547bf78cc",
      "transactionIndex": "0x2",
      "blockHash": "0x8a2ed0cda136a4ef5e95c41b3d1bcbfc1758654c06f2f208c42ebcc2d04eff95",
      "blockNumber": "0x501edd",
      "gasUsed": "0x2b37cb",
      "effectiveGasPrice": "0xa1ba500391",
      "from": "0x12e048d4f26f54c0625ef34fabd365e4f925f2ff",
      "to": null,
      "contractAddress": "0xfe5da1e77f2d5e3d72080b9c8bad377e4f7b4045"
    },
    {
      "status": "0x1",
      "cumulativeGasUsed": "0x13f358",
      "logs": [],
      "logsBloom": "0x00000000000000000000000000000000000000000000000000000000000000000000000000000000000000000000000000000000000000000000000000000000000000000000000000000000000000000000000000000000000000000000000000000000000000000000000000000000000000000000000000000000000000000000000000000000000000000000000000000000000000000000000000000000000000000000000000000000000000000000000000000000000000000000000000000000000000000000000000000000000000000000000000000000000000000000000000000000000000000000000000000000000000000000000000000000",
      "type": "0x2",
      "transactionHash": "0x6bc1590cc2612fca4556c653fbf9b9f5ab246fd479ed19b253d9a12cfb46f215",
      "transactionIndex": "0x0",
      "blockHash": "0x6bf6666cbcb7c7340122557042995df2e5536e694f9d377948cb6f1674f46518",
      "blockNumber": "0x501edf",
      "gasUsed": "0x16b41",
      "effectiveGasPrice": "0xa1ba500391",
      "from": "0x12e048d4f26f54c0625ef34fabd365e4f925f2ff",
      "to": null,
      "contractAddress": "0x72ebcc23850acadf271d28f8fb5e98d02d4254a0"
    },
    {
      "status": "0x1",
      "cumulativeGasUsed": "0x5ddce9",
      "logs": [],
      "logsBloom": "0x00000000000000000000000000000000000000000000000000000000000000000000000000000000000000000000000000000000000000000000000000000000000000000000000000000000000000000000000000000000000000000000000000000000000000000000000000000000000000000000000000000000000000000000000000000000000000000000000000000000000000000000000000000000000000000000000000000000000000000000000000000000000000000000000000000000000000000000000000000000000000000000000000000000000000000000000000000000000000000000000000000000000000000000000000000000",
      "type": "0x2",
      "transactionHash": "0x867599ce763e204b96bd07225874f023bfb4faaae18669a90cd1105ea3c0c861",
      "transactionIndex": "0x1",
      "blockHash": "0x0266e030256e4a013712021715ca493eaec4f6e6654298bc7ddfcfa5bd4e3b21",
      "blockNumber": "0x501ee0",
      "gasUsed": "0x16b41",
      "effectiveGasPrice": "0xa1ba500391",
      "from": "0x12e048d4f26f54c0625ef34fabd365e4f925f2ff",
      "to": null,
      "contractAddress": "0xfe5ef602444a765c61266f130e0b88af5cd74fe3"
    },
    {
      "status": "0x1",
      "cumulativeGasUsed": "0x1095aa",
      "logs": [],
      "logsBloom": "0x00000000000000000000000000000000000000000000000000000000000000000000000000000000000000000000000000000000000000000000000000000000000000000000000000000000000000000000000000000000000000000000000000000000000000000000000000000000000000000000000000000000000000000000000000000000000000000000000000000000000000000000000000000000000000000000000000000000000000000000000000000000000000000000000000000000000000000000000000000000000000000000000000000000000000000000000000000000000000000000000000000000000000000000000000000000",
      "type": "0x2",
      "transactionHash": "0xa5b8dbbb9e7b5587bb46f8407b08a763247d6d3b36a23b4b2ea6a71e3ac6a71e",
      "transactionIndex": "0x0",
      "blockHash": "0x1feace6a8c0b02dfc3beea90d254ce80a41b30f20ce462ce0b9c2c3c8311fb82",
      "blockNumber": "0x501ee2",
      "gasUsed": "0x16b41",
      "effectiveGasPrice": "0xa30d0ccd74",
      "from": "0x12e048d4f26f54c0625ef34fabd365e4f925f2ff",
      "to": null,
      "contractAddress": "0x9ae206f0aa765407cea052607b5da975232d8cad"
    },
    {
      "status": "0x1",
      "cumulativeGasUsed": "0x18fe42",
      "logs": [],
      "logsBloom": "0x00000000000000000000000000000000000000000000000000000000000000000000000000000000000000000000000000000000000000000000000000000000000000000000000000000000000000000000000000000000000000000000000000000000000000000000000000000000000000000000000000000000000000000000000000000000000000000000000000000000000000000000000000000000000000000000000000000000000000000000000000000000000000000000000000000000000000000000000000000000000000000000000000000000000000000000000000000000000000000000000000000000000000000000000000000000",
      "type": "0x2",
      "transactionHash": "0xc929619cdd94823bab1850210f23f3c5f8716277a0a16cbd0e70615f1896b389",
      "transactionIndex": "0x0",
      "blockHash": "0x77fe6d1ee767741a221ff8472e35448d0f3c410a3a2f298b13aff14d850b642b",
      "blockNumber": "0x501ee3",
      "gasUsed": "0x16b41",
      "effectiveGasPrice": "0xa1ba500391",
      "from": "0x12e048d4f26f54c0625ef34fabd365e4f925f2ff",
      "to": null,
      "contractAddress": "0x9a6f9c5008016b3e41e3d3a103b65a8f45b50b09"
    },
    {
      "status": "0x1",
      "cumulativeGasUsed": "0x3b1611",
      "logs": [],
      "logsBloom": "0x00000000000000000000000000000000000000000000000000000000000000000000000000000000000000000000000000000000000000000000000000000000000000000000000000000000000000000000000000000000000000000000000000000000000000000000000000000000000000000000000000000000000000000000000000000000000000000000000000000000000000000000000000000000000000000000000000000000000000000000000000000000000000000000000000000000000000000000000000000000000000000000000000000000000000000000000000000000000000000000000000000000000000000000000000000000",
      "type": "0x2",
      "transactionHash": "0x80d876850f6f4af9424b3220118f762284e5148e1cbd73d5db453d967342914c",
      "transactionIndex": "0x2",
      "blockHash": "0x495baad1357e12c098ae165562f9354063579e58bc623b4577e318d512e482a6",
      "blockNumber": "0x501ee4",
      "gasUsed": "0xaa33",
      "effectiveGasPrice": "0xa1ba500391",
      "from": "0x12e048d4f26f54c0625ef34fabd365e4f925f2ff",
      "to": "0x72ebcc23850acadf271d28f8fb5e98d02d4254a0",
      "contractAddress": null
    },
    {
      "status": "0x1",
      "cumulativeGasUsed": "0x1b99c9",
      "logs": [],
      "logsBloom": "0x00000000000000000000000000000000000000000000000000000000000000000000000000000000000000000000000000000000000000000000000000000000000000000000000000000000000000000000000000000000000000000000000000000000000000000000000000000000000000000000000000000000000000000000000000000000000000000000000000000000000000000000000000000000000000000000000000000000000000000000000000000000000000000000000000000000000000000000000000000000000000000000000000000000000000000000000000000000000000000000000000000000000000000000000000000000",
      "type": "0x2",
      "transactionHash": "0x3df3bc9031ce19ceae19c5ab1fa620e4a145afce38bc3b451c8a42fe31f58e53",
      "transactionIndex": "0x0",
      "blockHash": "0x0dd7c1cad23c7c217ac86e0ee9a58ee38db647ebe964e1cd6f4334b7bf64d3db",
      "blockNumber": "0x501ee6",
      "gasUsed": "0xaa3f",
      "effectiveGasPrice": "0xa1ba500391",
      "from": "0x12e048d4f26f54c0625ef34fabd365e4f925f2ff",
      "to": "0xfe5ef602444a765c61266f130e0b88af5cd74fe3",
      "contractAddress": null
    },
    {
      "status": "0x1",
      "cumulativeGasUsed": "0x283ebe",
      "logs": [],
      "logsBloom": "0x00000000000000000000000000000000000000000000000000000000000000000000000000000000000000000000000000000000000000000000000000000000000000000000000000000000000000000000000000000000000000000000000000000000000000000000000000000000000000000000000000000000000000000000000000000000000000000000000000000000000000000000000000000000000000000000000000000000000000000000000000000000000000000000000000000000000000000000000000000000000000000000000000000000000000000000000000000000000000000000000000000000000000000000000000000000",
      "type": "0x2",
      "transactionHash": "0x920ae22bf8bd5cd41bf64394fc03461d8844eb5c348aeed803fb6a2856c8d449",
      "transactionIndex": "0x1",
      "blockHash": "0xfbad2bd9908098ca025feebdb533f09646104e1d490d436f5e8b8fec2d14b234",
      "blockNumber": "0x501ee7",
      "gasUsed": "0xaa33",
      "effectiveGasPrice": "0xa2e5a5d7e5",
      "from": "0x12e048d4f26f54c0625ef34fabd365e4f925f2ff",
      "to": "0x9ae206f0aa765407cea052607b5da975232d8cad",
      "contractAddress": null
    },
    {
      "status": "0x1",
      "cumulativeGasUsed": "0x2155a9",
      "logs": [],
      "logsBloom": "0x00000000000000000000000000000000000000000000000000000000000000000000000000000000000000000000000000000000000000000000000000000000000000000000000000000000000000000000000000000000000000000000000000000000000000000000000000000000000000000000000000000000000000000000000000000000000000000000000000000000000000000000000000000000000000000000000000000000000000000000000000000000000000000000000000000000000000000000000000000000000000000000000000000000000000000000000000000000000000000000000000000000000000000000000000000000",
      "type": "0x2",
      "transactionHash": "0x95609df830f850112818c45311a48ed650de43df8d409eeafc9110a0b929fb88",
      "transactionIndex": "0x1",
      "blockHash": "0x200d9de8e4eaa073afbe4a7ee3dfdc7dfba7f4e222bfa5df5dc7ebecb9883ca5",
      "blockNumber": "0x501ee8",
      "gasUsed": "0xaa27",
      "effectiveGasPrice": "0xa1cfc5072c",
      "from": "0x12e048d4f26f54c0625ef34fabd365e4f925f2ff",
      "to": "0x9a6f9c5008016b3e41e3d3a103b65a8f45b50b09",
      "contractAddress": null
    },
    {
      "status": "0x1",
      "cumulativeGasUsed": "0x9dd9d",
      "logs": [
        {
          "address": "0xfe5da1e77f2d5e3d72080b9c8bad377e4f7b4045",
          "topics": [
            "0xbd442b44232a47eafd1a3cf0610e4479497753134df9b5d61d3e611102552390"
          ],
          "data": "0x00000000000000000000000028cc5edd54b1e4565317c3e0cfab551926a4cd2a00000000000000000000000072ebcc23850acadf271d28f8fb5e98d02d4254a0",
          "blockHash": "0xe11497c6d68d074be9ac8071f79dc3bb3f5d2b80914b0ee41066bb17f38fe2cb",
          "blockNumber": "0x501eea",
          "transactionHash": "0x37aaa4d00fc1bcf116e1f5170a44a674c84988030a09237ee01d84076041d93c",
          "transactionIndex": "0x1",
          "logIndex": "0x1",
          "removed": false
        }
      ],
      "logsBloom": "0x00000000000000000000000000000000000000000000000000000000000000000000000000000000000000000000000000000000000000000000000000000000000000000000000000000000000000000000000000000000000000000000000000000000000000000000000000000000000004000000000000000800000000000000000000000000000000000000000000000001000000000000000000000000000000000000000000000002000000000000000000000000000000002000000000000000000000000000000000000000000000100000000000000000000000000000000000000000000000000000000000000000000000000000000000000000",
      "type": "0x2",
      "transactionHash": "0x37aaa4d00fc1bcf116e1f5170a44a674c84988030a09237ee01d84076041d93c",
      "transactionIndex": "0x1",
      "blockHash": "0xe11497c6d68d074be9ac8071f79dc3bb3f5d2b80914b0ee41066bb17f38fe2cb",
      "blockNumber": "0x501eea",
      "gasUsed": "0xbb91",
      "effectiveGasPrice": "0xa1ba500391",
      "from": "0x12e048d4f26f54c0625ef34fabd365e4f925f2ff",
      "to": "0xfe5da1e77f2d5e3d72080b9c8bad377e4f7b4045",
      "contractAddress": null
    },
    {
      "status": "0x1",
      "cumulativeGasUsed": "0x16ed64",
      "logs": [
        {
          "address": "0xfe5da1e77f2d5e3d72080b9c8bad377e4f7b4045",
          "topics": [
            "0xbd442b44232a47eafd1a3cf0610e4479497753134df9b5d61d3e611102552390"
          ],
          "data": "0x000000000000000000000000914938e817bd0b5f7984007da6d27ca2efb9f8f4000000000000000000000000fe5ef602444a765c61266f130e0b88af5cd74fe3",
          "blockHash": "0x8f429559a72c89bec7e100de298284ba5f2274f0f6f0f871f85758df16473fdb",
          "blockNumber": "0x501eeb",
          "transactionHash": "0x47dfbe0dfbcb2bfa4cd34e83d0233326a4fa757b46c79e84d488d29d9da94999",
          "transactionIndex": "0x0",
          "logIndex": "0x0",
          "removed": false
        }
      ],
      "logsBloom": "0x00000000000000000000000000000000000000000000000000000000000000000000000000000000000000000000000000000000000000000000000000000000000000000000000000000000000000000000000000000000000000000000000000000000000000000000000000000000000004000000000000000800000000000000000000000000000000000000000000000001000000000000000000000000000000000000000000000002000000000000000000000000000000002000000000000000000000000000000000000000000000100000000000000000000000000000000000000000000000000000000000000000000000000000000000000000",
      "type": "0x2",
      "transactionHash": "0x47dfbe0dfbcb2bfa4cd34e83d0233326a4fa757b46c79e84d488d29d9da94999",
      "transactionIndex": "0x0",
      "blockHash": "0x8f429559a72c89bec7e100de298284ba5f2274f0f6f0f871f85758df16473fdb",
      "blockNumber": "0x501eeb",
      "gasUsed": "0xbb85",
      "effectiveGasPrice": "0xa1ba500391",
      "from": "0x12e048d4f26f54c0625ef34fabd365e4f925f2ff",
      "to": "0xfe5da1e77f2d5e3d72080b9c8bad377e4f7b4045",
      "contractAddress": null
    },
    {
      "status": "0x1",
      "cumulativeGasUsed": "0x4433ff",
      "logs": [
        {
          "address": "0xfe5da1e77f2d5e3d72080b9c8bad377e4f7b4045",
          "topics": [
            "0xbd442b44232a47eafd1a3cf0610e4479497753134df9b5d61d3e611102552390"
          ],
          "data": "0x00000000000000000000000074f4b6c7f7f518202231b58ce6e8736df6b50a810000000000000000000000009ae206f0aa765407cea052607b5da975232d8cad",
          "blockHash": "0x0c0f5d92bc60f6c6690566a045cd33ce1a8e52b15f6ec6d817e60acd33242210",
          "blockNumber": "0x501eec",
          "transactionHash": "0xb166e6472877788b9c9bf7fbd3b582ee0da7ed352cdaa502c1f684a8d5db6cce",
          "transactionIndex": "0x0",
          "logIndex": "0x0",
          "removed": false
        }
      ],
      "logsBloom": "0x00000000000000000000000000000000000000000000000000000000000000000000000000000000000000000000000000000000000000000000000000000000000000000000000000000000000000000000000000000000000000000000000000000000000000000000000000000000000004000000000000000800000000000000000000000000000000000000000000000001000000000000000000000000000000000000000000000002000000000000000000000000000000002000000000000000000000000000000000000000000000100000000000000000000000000000000000000000000000000000000000000000000000000000000000000000",
      "type": "0x2",
      "transactionHash": "0xb166e6472877788b9c9bf7fbd3b582ee0da7ed352cdaa502c1f684a8d5db6cce",
      "transactionIndex": "0x0",
      "blockHash": "0x0c0f5d92bc60f6c6690566a045cd33ce1a8e52b15f6ec6d817e60acd33242210",
      "blockNumber": "0x501eec",
      "gasUsed": "0xbb91",
      "effectiveGasPrice": "0xa1ba500391",
      "from": "0x12e048d4f26f54c0625ef34fabd365e4f925f2ff",
      "to": "0xfe5da1e77f2d5e3d72080b9c8bad377e4f7b4045",
      "contractAddress": null
    },
    {
      "status": "0x1",
      "cumulativeGasUsed": "0x77f0b",
      "logs": [
        {
          "address": "0xfe5da1e77f2d5e3d72080b9c8bad377e4f7b4045",
          "topics": [
            "0xbd442b44232a47eafd1a3cf0610e4479497753134df9b5d61d3e611102552390"
          ],
          "data": "0x00000000000000000000000083e9a41c38d71f7a06632de275877fca488278700000000000000000000000009a6f9c5008016b3e41e3d3a103b65a8f45b50b09",
          "blockHash": "0x26dc842debd8454cbe76532c80cc5625aa1560b7ca7912c8b01ec0d25931bc19",
          "blockNumber": "0x501eee",
          "transactionHash": "0x8d8d73957669746a7fe9a3abb2678055580fd85973d2637f378f8b39327ae855",
          "transactionIndex": "0x0",
          "logIndex": "0x0",
          "removed": false
        }
      ],
      "logsBloom": "0x00000000000000000000000000000000000000000000000000000000000000000000000000000000000000000000000000000000000000000000000000000000000000000000000000000000000000000000000000000000000000000000000000000000000000000000000000000000000004000000000000000800000000000000000000000000000000000000000000000001000000000000000000000000000000000000000000000002000000000000000000000000000000002000000000000000000000000000000000000000000000100000000000000000000000000000000000000000000000000000000000000000000000000000000000000000",
      "type": "0x2",
      "transactionHash": "0x8d8d73957669746a7fe9a3abb2678055580fd85973d2637f378f8b39327ae855",
      "transactionIndex": "0x0",
      "blockHash": "0x26dc842debd8454cbe76532c80cc5625aa1560b7ca7912c8b01ec0d25931bc19",
      "blockNumber": "0x501eee",
      "gasUsed": "0xbb91",
      "effectiveGasPrice": "0xa1ba500391",
      "from": "0x12e048d4f26f54c0625ef34fabd365e4f925f2ff",
      "to": "0xfe5da1e77f2d5e3d72080b9c8bad377e4f7b4045",
      "contractAddress": null
    }
  ],
  "libraries": [],
  "pending": [],
  "returns": {},
  "timestamp": 1727189854,
  "chain": 4157,
  "commit": "984c987"
}